{
  "_format": "hh-sol-artifact-1",
  "contractName": "AnonymousFoodSafety",
  "sourceName": "contracts/AnonymousFoodSafety.sol",
  "abi": [
    {
      "inputs": [],
      "stateMutability": "nonpayable",
      "type": "constructor"
    },
    {
      "anonymous": false,
      "inputs": [
        {
          "indexed": true,
          "internalType": "uint32",
          "name": "reportId",
          "type": "uint32"
        },
        {
          "indexed": false,
          "internalType": "enum AnonymousFoodSafety.SafetyLevel",
          "name": "finalLevel",
          "type": "uint8"
        }
      ],
      "name": "InvestigationCompleted",
      "type": "event"
    },
    {
      "anonymous": false,
      "inputs": [
        {
          "indexed": true,
          "internalType": "uint32",
          "name": "reportId",
          "type": "uint32"
        },
        {
          "indexed": true,
          "internalType": "address",
          "name": "investigator",
          "type": "address"
        }
      ],
      "name": "InvestigationStarted",
      "type": "event"
    },
    {
      "anonymous": false,
      "inputs": [
        {
          "indexed": true,
          "internalType": "address",
          "name": "investigator",
          "type": "address"
        }
      ],
      "name": "InvestigatorAuthorized",
      "type": "event"
    },
    {
      "anonymous": false,
      "inputs": [
        {
          "indexed": true,
          "internalType": "address",
          "name": "investigator",
          "type": "address"
        }
      ],
      "name": "InvestigatorRevoked",
      "type": "event"
    },
    {
      "anonymous": false,
      "inputs": [
        {
          "indexed": true,
          "internalType": "uint32",
          "name": "reportId",
          "type": "uint32"
        },
        {
          "indexed": false,
          "internalType": "enum AnonymousFoodSafety.ReportStatus",
          "name": "newStatus",
          "type": "uint8"
        }
      ],
      "name": "ReportStatusChanged",
      "type": "event"
    },
    {
      "anonymous": false,
      "inputs": [
        {
          "indexed": true,
          "internalType": "uint32",
          "name": "reportId",
          "type": "uint32"
        },
        {
          "indexed": false,
          "internalType": "uint256",
          "name": "timestamp",
          "type": "uint256"
        }
      ],
      "name": "ReportSubmitted",
      "type": "event"
    },
    {
      "inputs": [
        {
          "internalType": "address",
          "name": "_investigator",
          "type": "address"
        }
      ],
      "name": "authorizeInvestigator",
      "outputs": [],
      "stateMutability": "nonpayable",
      "type": "function"
    },
    {
      "inputs": [
        {
          "internalType": "address",
          "name": "",
          "type": "address"
        }
      ],
      "name": "authorizedInvestigators",
      "outputs": [
        {
          "internalType": "bool",
          "name": "",
          "type": "bool"
        }
      ],
      "stateMutability": "view",
      "type": "function"
    },
    {
      "inputs": [
        {
          "internalType": "uint32[]",
          "name": "_reportIds",
          "type": "uint32[]"
        },
        {
          "internalType": "enum AnonymousFoodSafety.ReportStatus",
          "name": "_status",
          "type": "uint8"
        }
      ],
      "name": "batchUpdateStatus",
      "outputs": [],
      "stateMutability": "nonpayable",
      "type": "function"
    },
    {
      "inputs": [
        {
          "internalType": "uint32",
          "name": "_reportId",
          "type": "uint32"
        },
        {
          "internalType": "enum AnonymousFoodSafety.SafetyLevel",
          "name": "_finalLevel",
          "type": "uint8"
        },
        {
          "internalType": "string",
          "name": "_findings",
          "type": "string"
        }
      ],
      "name": "completeInvestigation",
      "outputs": [],
      "stateMutability": "nonpayable",
      "type": "function"
    },
    {
      "inputs": [
        {
          "internalType": "uint32",
          "name": "_reportId",
          "type": "uint32"
        },
        {
          "internalType": "string",
          "name": "_reason",
          "type": "string"
        }
      ],
      "name": "emergencyCloseReport",
      "outputs": [],
      "stateMutability": "nonpayable",
      "type": "function"
    },
    {
      "inputs": [
        {
          "internalType": "uint32",
          "name": "_reportId",
          "type": "uint32"
        }
      ],
      "name": "getInvestigationInfo",
      "outputs": [
        {
          "internalType": "address",
          "name": "investigator",
          "type": "address"
        },
        {
          "internalType": "enum AnonymousFoodSafety.SafetyLevel",
          "name": "finalSafetyLevel",
          "type": "uint8"
        },
        {
          "internalType": "string",
          "name": "findings",
          "type": "string"
        },
        {
          "internalType": "bool",
          "name": "isComplete",
          "type": "bool"
        },
        {
          "internalType": "uint256",
          "name": "startTime",
          "type": "uint256"
        },
        {
          "internalType": "uint256",
          "name": "endTime",
          "type": "uint256"
        }
      ],
      "stateMutability": "view",
      "type": "function"
    },
    {
      "inputs": [
        {
          "internalType": "uint32",
          "name": "_locationCode",
          "type": "uint32"
        }
      ],
      "name": "getLocationStats",
      "outputs": [
        {
          "internalType": "uint32",
          "name": "totalReports",
          "type": "uint32"
        },
        {
          "internalType": "uint32",
          "name": "resolvedReports",
          "type": "uint32"
        },
        {
          "internalType": "enum AnonymousFoodSafety.SafetyLevel",
          "name": "avgSafetyLevel",
          "type": "uint8"
        },
        {
          "internalType": "uint256",
          "name": "lastReportTime",
          "type": "uint256"
        }
      ],
      "stateMutability": "view",
      "type": "function"
    },
    {
      "inputs": [
        {
          "internalType": "uint32",
          "name": "_reportId",
          "type": "uint32"
        }
      ],
      "name": "getReportInfo",
      "outputs": [
        {
          "internalType": "enum AnonymousFoodSafety.ReportStatus",
          "name": "status",
          "type": "uint8"
        },
        {
          "internalType": "uint256",
          "name": "timestamp",
          "type": "uint256"
        },
        {
          "internalType": "uint256",
          "name": "lastUpdated",
          "type": "uint256"
        },
        {
          "internalType": "bool",
          "name": "isProcessed",
          "type": "bool"
        },
        {
          "internalType": "bool",
          "name": "isValid",
          "type": "bool"
        }
      ],
      "stateMutability": "view",
      "type": "function"
    },
    {
      "inputs": [
        {
          "internalType": "address",
          "name": "_reporter",
          "type": "address"
        }
      ],
      "name": "getReporterStats",
      "outputs": [
        {
          "internalType": "uint32",
          "name": "reportCount",
          "type": "uint32"
        }
      ],
      "stateMutability": "view",
      "type": "function"
    },
    {
      "inputs": [],
      "name": "getTotalStats",
      "outputs": [
        {
          "internalType": "uint32",
          "name": "total",
          "type": "uint32"
        },
        {
          "internalType": "uint32",
          "name": "submitted",
          "type": "uint32"
        },
        {
          "internalType": "uint32",
          "name": "underReview",
          "type": "uint32"
        },
        {
          "internalType": "uint32",
          "name": "investigating",
          "type": "uint32"
        },
        {
          "internalType": "uint32",
          "name": "resolved",
          "type": "uint32"
        },
        {
          "internalType": "uint32",
          "name": "closed",
          "type": "uint32"
        }
      ],
      "stateMutability": "view",
      "type": "function"
    },
    {
      "inputs": [
        {
          "internalType": "uint32",
          "name": "",
          "type": "uint32"
        }
      ],
      "name": "investigations",
      "outputs": [
        {
          "internalType": "uint32",
          "name": "reportId",
          "type": "uint32"
        },
        {
          "internalType": "address",
          "name": "investigator",
          "type": "address"
        },
        {
          "internalType": "enum AnonymousFoodSafety.SafetyLevel",
          "name": "finalSafetyLevel",
          "type": "uint8"
        },
        {
          "internalType": "string",
          "name": "findings",
          "type": "string"
        },
        {
          "internalType": "bool",
          "name": "isComplete",
          "type": "bool"
        },
        {
          "internalType": "uint256",
          "name": "startTime",
          "type": "uint256"
        },
        {
          "internalType": "uint256",
          "name": "endTime",
          "type": "uint256"
        }
      ],
      "stateMutability": "view",
      "type": "function"
    },
    {
      "inputs": [
        {
          "internalType": "uint32",
          "name": "",
          "type": "uint32"
        }
      ],
      "name": "locationStats",
      "outputs": [
        {
          "internalType": "uint32",
          "name": "totalReports",
          "type": "uint32"
        },
        {
          "internalType": "uint32",
          "name": "resolvedReports",
          "type": "uint32"
        },
        {
          "internalType": "enum AnonymousFoodSafety.SafetyLevel",
          "name": "avgSafetyLevel",
          "type": "uint8"
        },
        {
          "internalType": "uint256",
          "name": "lastReportTime",
          "type": "uint256"
        }
      ],
      "stateMutability": "view",
      "type": "function"
    },
    {
      "inputs": [],
      "name": "owner",
      "outputs": [
        {
          "internalType": "address",
          "name": "",
          "type": "address"
        }
      ],
      "stateMutability": "view",
      "type": "function"
    },
    {
      "inputs": [],
      "name": "protocolId",
      "outputs": [
        {
          "internalType": "uint256",
          "name": "",
          "type": "uint256"
        }
      ],
      "stateMutability": "pure",
      "type": "function"
    },
    {
      "inputs": [],
      "name": "regulator",
      "outputs": [
        {
          "internalType": "address",
          "name": "",
          "type": "address"
        }
      ],
      "stateMutability": "view",
      "type": "function"
    },
    {
      "inputs": [
        {
          "internalType": "address",
          "name": "",
          "type": "address"
        },
        {
          "internalType": "uint256",
          "name": "",
          "type": "uint256"
        }
      ],
      "name": "reporterHistory",
      "outputs": [
        {
          "internalType": "uint32",
          "name": "",
          "type": "uint32"
        }
      ],
      "stateMutability": "view",
      "type": "function"
    },
    {
      "inputs": [
        {
          "internalType": "uint32",
          "name": "",
          "type": "uint32"
        }
      ],
      "name": "reports",
      "outputs": [
        {
          "internalType": "euint32",
          "name": "encryptedReportId",
          "type": "bytes32"
        },
        {
          "internalType": "eaddress",
          "name": "encryptedReporter",
          "type": "bytes32"
        },
        {
          "internalType": "euint8",
          "name": "encryptedSafetyLevel",
          "type": "bytes32"
        },
        {
          "internalType": "euint32",
          "name": "encryptedLocation",
          "type": "bytes32"
        },
        {
          "internalType": "euint32",
          "name": "encryptedFoodType",
          "type": "bytes32"
        },
        {
          "internalType": "string",
          "name": "encryptedDescription",
          "type": "string"
        },
        {
          "internalType": "bool",
          "name": "isProcessed",
          "type": "bool"
        },
        {
          "internalType": "enum AnonymousFoodSafety.ReportStatus",
          "name": "status",
          "type": "uint8"
        },
        {
          "internalType": "uint256",
          "name": "timestamp",
          "type": "uint256"
        },
        {
          "internalType": "uint256",
          "name": "lastUpdated",
          "type": "uint256"
        },
        {
          "internalType": "bool",
          "name": "isValid",
          "type": "bool"
        }
      ],
      "stateMutability": "view",
      "type": "function"
    },
    {
      "inputs": [
        {
          "internalType": "address",
          "name": "_investigator",
          "type": "address"
        }
      ],
      "name": "revokeInvestigator",
      "outputs": [],
      "stateMutability": "nonpayable",
      "type": "function"
    },
    {
      "inputs": [
        {
          "internalType": "address",
          "name": "_regulator",
          "type": "address"
        }
      ],
      "name": "setRegulator",
      "outputs": [],
      "stateMutability": "nonpayable",
      "type": "function"
    },
    {
      "inputs": [
        {
          "internalType": "uint32",
          "name": "_reportId",
          "type": "uint32"
        }
      ],
      "name": "startInvestigation",
      "outputs": [],
      "stateMutability": "nonpayable",
      "type": "function"
    },
    {
      "inputs": [
        {
          "internalType": "uint8",
          "name": "_safetyLevel",
          "type": "uint8"
        },
        {
          "internalType": "uint32",
          "name": "_locationCode",
          "type": "uint32"
        },
        {
          "internalType": "uint32",
          "name": "_foodTypeCode",
          "type": "uint32"
        },
        {
          "internalType": "string",
          "name": "_description",
          "type": "string"
        }
      ],
      "name": "submitAnonymousReport",
      "outputs": [],
      "stateMutability": "nonpayable",
      "type": "function"
    },
    {
      "inputs": [],
      "name": "totalReports",
      "outputs": [
        {
          "internalType": "uint32",
          "name": "",
          "type": "uint32"
        }
      ],
      "stateMutability": "view",
      "type": "function"
    },
    {
      "inputs": [
        {
          "internalType": "uint32",
          "name": "_reportId",
          "type": "uint32"
        },
        {
          "internalType": "enum AnonymousFoodSafety.ReportStatus",
          "name": "_status",
          "type": "uint8"
        }
      ],
      "name": "updateReportStatus",
      "outputs": [],
      "stateMutability": "nonpayable",
      "type": "function"
    }
  ],
  "bytecode": "0x608060405234801561001057600080fd5b5061018c6100b0604080516080810182526000808252602082018190529181018290526060810191909152506040805160808101825273687820221192c5b662b25367f70076a37bc79b6c815273848b0066793bcc60346da1f49049357399b8d595602082015273a02cda4ca3a71d7c46997716f4283aa851c2881291810191909152731364cbbf2cdf5032c47d8226a6f6fbd2afcdacac606082015290565b80517f9e7b61f58c47dc699ac88507c4f5bb9f121c03808c5676a8078fe583e464970080546001600160a01b03199081166001600160a01b039384161790915560208301517f9e7b61f58c47dc699ac88507c4f5bb9f121c03808c5676a8078fe583e46497018054831691841691909117905560408301517f9e7b61f58c47dc699ac88507c4f5bb9f121c03808c5676a8078fe583e46497028054831691841691909117905560608301517f9e7b61f58c47dc699ac88507c4f5bb9f121c03808c5676a8078fe583e46497038054909216921691909117905550565b60008054336001600160a01b03199091168117909155600180546001600160c01b03191663ffffffff60a01b19909216919091179055612130806101d16000396000f3fe608060405234801561001057600080fd5b506004361061014d5760003560e01c8063c452630e116100c3578063df9e9de81161007c578063df9e9de814610399578063e770f96c146103cc578063ef71a2f9146103df578063f948b5ef146103f2578063fc5cbf1d14610417578063fe9655441461045e57600080fd5b8063c452630e146102fd578063c573601214610310578063cde0a4f81461033a578063d28e368b1461034d578063da1f12ab14610376578063dd8fee141461038657600080fd5b806348b3ec571161011557806348b3ec57146101cd578063501a9c40146101f35780635be0545a1461024b5780638da5cb5b146102a8578063ad0bb097146102d3578063b00eba4f146102e657600080fd5b80632964a2d41461015257806334fac3411461017f5780633cb04c70146101945780633e25ea88146101a7578063438e76d8146101ba575b600080fd5b610165610160366004611976565b6104a8565b60405163ffffffff90911681526020015b60405180910390f35b61019261018d3660046119a0565b6104f1565b005b6101926101a23660046119d6565b610585565b6101926101b5366004611ac3565b61084d565b6101926101c8366004611b23565b610aba565b6101e06101db3660046119d6565b610c47565b6040516101769796959493929190611c4e565b61023b6102013660046119d6565b6004602052600090815260409020805460019091015463ffffffff80831692640100000000810490911691600160401b90910460ff169084565b6040516101769493929190611caa565b6102976102593660046119d6565b63ffffffff16600090815260026020526040902060068101546007820154600883015460099093015460ff6101008404811695929493811692911690565b604051610176959493929190611cda565b6000546102bb906001600160a01b031681565b6040516001600160a01b039091168152602001610176565b6101926102e1366004611d0c565b610d28565b60015461016590600160a01b900463ffffffff1681565b61019261030b366004611d43565b610e33565b61032361031e3660046119d6565b610f1e565b6040516101769b9a99989796959493929190611d91565b6101926103483660046119a0565b61100a565b61016561035b3660046119a0565b6001600160a01b031660009081526005602052604090205490565b6040516127118152602001610176565b6001546102bb906001600160a01b031681565b6103bc6103a73660046119a0565b60066020526000908152604090205460ff1681565b6040519015158152602001610176565b6101926103da366004611e04565b611077565b6101926103ed3660046119a0565b611439565b6104056104003660046119d6565b6114c1565b60405161017696959493929190611e7b565b61041f6115c1565b6040805163ffffffff978816815295871660208701529386169385019390935290841660608401528316608083015290911660a082015260c001610176565b61023b61046c3660046119d6565b63ffffffff9081166000908152600460205260409020805460019091015481831693640100000000830490931692600160401b90920460ff1691565b600560205281600052604060002081815481106104c457600080fd5b9060005260206000209060089182820401919006600402915091509054906101000a900463ffffffff1681565b6001546001600160a01b031633148061051457506000546001600160a01b031633145b6105395760405162461bcd60e51b815260040161053090611eca565b60405180910390fd5b6001600160a01b038116600081815260066020526040808220805460ff19166001179055517fb385a66182295f3950d03fe7e4eaf4ef94a70441bf7c7be1a4ebcbead6db5bf89190a250565b3360009081526006602052604090205460ff16806105ad57506001546001600160a01b031633145b806105c257506000546001600160a01b031633145b61060e5760405162461bcd60e51b815260206004820152601b60248201527f4e6f7420617574686f72697a656420696e76657374696761746f7200000000006044820152606401610530565b63ffffffff811660009081526002602052604090206009015460ff166106465760405162461bcd60e51b815260040161053090611ef1565b600063ffffffff8216600090815260026020526040902060060154610100900460ff16600481111561067a5761067a611be2565b14806106b75750600163ffffffff8216600090815260026020526040902060060154610100900460ff1660048111156106b5576106b5611be2565b145b6106f85760405162461bcd60e51b815260206004820152601260248201527143616e6e6f7420696e76657374696761746560701b6044820152606401610530565b6040805160e08101825263ffffffff83168152336020820152908101600081526040805160208181018352600080835281850192909252828401829052426060850152608090930181905263ffffffff8086168252600384529082902084518154948601516001600160a01b0316640100000000026001600160c01b0319909516921691909117929092178083559083015190829060ff60c01b1916600160c01b8360048111156107ab576107ab611be2565b0217905550606082015160018201906107c49082611fa3565b5060808201516002828101805460ff19169215159290921790915560a0830151600383015560c09092015160049091015563ffffffff82166000818152602092909252604080832060068101805461ff001916610200179055426008909101555133927faab76ae572530252983e5f8f080dcd26d2ac1b449d829b452e2c7ff323c0d5e291a350565b3360009081526006602052604090205460ff168061087557506001546001600160a01b031633145b8061088a57506000546001600160a01b031633145b6108d65760405162461bcd60e51b815260206004820152601b60248201527f4e6f7420617574686f72697a656420696e76657374696761746f7200000000006044820152606401610530565b63ffffffff831660009081526003602052604090205464010000000090046001600160a01b031633148061091457506001546001600160a01b031633145b6109605760405162461bcd60e51b815260206004820152601960248201527f4e6f742061737369676e656420696e76657374696761746f72000000000000006044820152606401610530565b63ffffffff831660009081526003602052604090206002015460ff16156109c95760405162461bcd60e51b815260206004820152601e60248201527f496e7665737469676174696f6e20616c726561647920636f6d706c65746500006044820152606401610530565b63ffffffff83166000908152600360205260409020805483919060ff60c01b1916600160c01b836004811115610a0157610a01611be2565b021790555063ffffffff83166000908152600360205260409020600101610a288282611fa3565b5063ffffffff831660008181526003602090815260408083206002808201805460ff1916600117905542600490920182905590925280832060068101805460089092019390935561ffff191661030117909155519091907faafa8049cfcf8a8991b4ad130e5dce859a59d82ac9f360c7fb7e090d12ae4d4590610aac908690612063565b60405180910390a250505050565b6001546001600160a01b0316331480610add57506000546001600160a01b031633145b610af95760405162461bcd60e51b815260040161053090611eca565b60005b8251811015610c425760026000848381518110610b1b57610b1b612076565b60209081029190910181015163ffffffff1682528101919091526040016000206009015460ff1615610c3a578160026000858481518110610b5e57610b5e612076565b60209081029190910181015163ffffffff168252810191909152604001600020600601805461ff001916610100836004811115610b9d57610b9d611be2565b02179055504260026000858481518110610bb957610bb9612076565b602002602001015163ffffffff1663ffffffff16815260200190815260200160002060080181905550828181518110610bf457610bf4612076565b602002602001015163ffffffff167f1256cf22bf8ff19a2b2696046b6f430e13ed5a1631bb3bbe7ea1f3d883e9ae4683604051610c319190612063565b60405180910390a25b600101610afc565b505050565b6003602052600090815260409020805460018201805463ffffffff83169364010000000084046001600160a01b031693600160c01b900460ff16929091610c8d90611f19565b80601f0160208091040260200160405190810160405280929190818152602001828054610cb990611f19565b8015610d065780601f10610cdb57610100808354040283529160200191610d06565b820191906000526020600020905b815481529060010190602001808311610ce957829003601f168201915b5050505060028301546003840154600490940154929360ff9091169290915087565b6001546001600160a01b0316331480610d4b57506000546001600160a01b031633145b610d675760405162461bcd60e51b815260040161053090611eca565b63ffffffff821660009081526002602052604090206009015460ff16610d9f5760405162461bcd60e51b815260040161053090611ef1565b63ffffffff82166000908152600260205260409020600601805482919061ff001916610100836004811115610dd657610dd6611be2565b021790555063ffffffff82166000818152600260205260409081902042600890910155517f1256cf22bf8ff19a2b2696046b6f430e13ed5a1631bb3bbe7ea1f3d883e9ae4690610e27908490612063565b60405180910390a25050565b6000546001600160a01b03163314610e7e5760405162461bcd60e51b815260206004820152600e60248201526d139bdd08185d5d1a1bdc9a5e995960921b6044820152606401610530565b63ffffffff821660009081526002602052604090206009015460ff16610eb65760405162461bcd60e51b815260040161053090611ef1565b63ffffffff82166000818152600260205260409081902060068101805461ff001916610400179055426008820155600901805460ff19169055517f1256cf22bf8ff19a2b2696046b6f430e13ed5a1631bb3bbe7ea1f3d883e9ae4690610e2790600490612063565b6002602052806000526040600020600091509050806000015490806001015490806002015490806003015490806004015490806005018054610f5f90611f19565b80601f0160208091040260200160405190810160405280929190818152602001828054610f8b90611f19565b8015610fd85780601f10610fad57610100808354040283529160200191610fd8565b820191906000526020600020905b815481529060010190602001808311610fbb57829003601f168201915b505050600684015460078501546008860154600990960154949560ff808416966101009094048116955091935091168b565b6000546001600160a01b031633146110555760405162461bcd60e51b815260206004820152600e60248201526d139bdd08185d5d1a1bdc9a5e995960921b6044820152606401610530565b600180546001600160a01b0319166001600160a01b0392909216919091179055565b60048460ff1611156110c25760405162461bcd60e51b8152602060048201526014602482015273125b9d985b1a59081cd859995d1e481b195d995b60621b6044820152606401610530565b60018054600160a01b900463ffffffff169060146110df8361208c565b82546101009290920a63ffffffff818102199093169183160217909155600154600160a01b90041690506000611114826117a8565b90506000611121336117c1565b9050600061112e886117d7565b9050600061113b886117a8565b90506000611148886117a8565b90506040518061016001604052808681526020018581526020018481526020018381526020018281526020018881526020016000151581526020016000600481111561119657611196611be2565b815260200142815260200142815260200160011515815250600260008863ffffffff1663ffffffff168152602001908152602001600020600082015181600001556020820151816001015560408201518160020155606082015181600301556080820151816004015560a08201518160050190816112149190611fa3565b5060c082015160068201805491151560ff1983168117825560e08501519261ff001990911661ffff199091161761010083600481111561125657611256611be2565b021790555061010082810151600780840191909155610120840151600880850191909155610140909401516009909301805493151560ff19909416939093179092553360009081526005602090815260408083208054600181018255908452828420968104909601805463ffffffff808f16600499909816890290960a9687029686021916959095179094558d83168252939093529082208054909116916112fd8361208c565b91906101000a81548163ffffffff021916908363ffffffff1602179055505042600460008b63ffffffff1663ffffffff1681526020019081526020016000206001018190555061134c856117e7565b50611356846117e7565b50611360836117e7565b5061136a826117e7565b50611374816117e7565b5060015461138c9086906001600160a01b03166117f7565b506001546113a49085906001600160a01b03166117f7565b506001546113bc9084906001600160a01b03166117f7565b506001546113d49083906001600160a01b03166117f7565b506001546113ec9082906001600160a01b03166117f7565b508563ffffffff167f2e600cb9d12d3c90a8b4647ab40b9286ae2c829cab04f271001b64d61d23c5304260405161142591815260200190565b60405180910390a250505050505050505050565b6001546001600160a01b031633148061145c57506000546001600160a01b031633145b6114785760405162461bcd60e51b815260040161053090611eca565b6001600160a01b038116600081815260066020526040808220805460ff19169055517fb8d207aeccb31db5f2727d6f3ebb213019eca292c8cf660477004dd23f711a799190a250565b63ffffffff811660009081526003602081905260408220805460028201549282015460048301546001840180548796606096889687968796929564010000000083046001600160a01b031695600160c01b90930460ff908116959194911692849061152b90611f19565b80601f016020809104026020016040519081016040528092919081815260200182805461155790611f19565b80156115a45780601f10611579576101008083540402835291602001916115a4565b820191906000526020600020905b81548152906001019060200180831161158757829003601f168201915b505050505093509650965096509650965096505091939550919395565b60018054600160a01b900463ffffffff169060009081908190819081905b60015463ffffffff600160a01b90910481169082161161179f5763ffffffff811660009081526002602052604090206009015460ff161561178d57600063ffffffff8216600090815260026020526040902060060154610100900460ff16600481111561164e5761164e611be2565b03611665578561165d8161208c565b96505061178d565b600163ffffffff8216600090815260026020526040902060060154610100900460ff16600481111561169957611699611be2565b036116b057846116a88161208c565b95505061178d565b600263ffffffff8216600090815260026020526040902060060154610100900460ff1660048111156116e4576116e4611be2565b036116fb57836116f38161208c565b94505061178d565b600363ffffffff8216600090815260026020526040902060060154610100900460ff16600481111561172f5761172f611be2565b03611746578261173e8161208c565b93505061178d565b600463ffffffff8216600090815260026020526040902060060154610100900460ff16600481111561177a5761177a611be2565b0361178d57816117898161208c565b9250505b806117978161208c565b9150506115df565b50909192939495565b60006117bb8263ffffffff16600461180a565b92915050565b60006117bb826001600160a01b0316600761180a565b60006117bb8260ff16600261180a565b60006117f382306118cb565b5090565b600061180383836118cb565b5090919050565b7f9e7b61f58c47dc699ac88507c4f5bb9f121c03808c5676a8078fe583e464970154604051639cd07acb60e01b81526000917f9e7b61f58c47dc699ac88507c4f5bb9f121c03808c5676a8078fe583e4649700916001600160a01b0390911690639cd07acb9061188090879087906004016120bd565b6020604051808303816000875af115801561189f573d6000803e3d6000fd5b505050506040513d601f19601f820116820180604052508101906118c391906120e1565b949350505050565b60007f9e7b61f58c47dc699ac88507c4f5bb9f121c03808c5676a8078fe583e46497008054604051635ca4b5b160e11b8152600481018690526001600160a01b03858116602483015292935091169063b9496b6290604401600060405180830381600087803b15801561193d57600080fd5b505af1158015611951573d6000803e3d6000fd5b50505050505050565b80356001600160a01b038116811461197157600080fd5b919050565b6000806040838503121561198957600080fd5b6119928361195a565b946020939093013593505050565b6000602082840312156119b257600080fd5b6119bb8261195a565b9392505050565b803563ffffffff8116811461197157600080fd5b6000602082840312156119e857600080fd5b6119bb826119c2565b600581106119fe57600080fd5b50565b8035611971816119f1565b634e487b7160e01b600052604160045260246000fd5b604051601f8201601f1916810167ffffffffffffffff81118282101715611a4b57611a4b611a0c565b604052919050565b600082601f830112611a6457600080fd5b813567ffffffffffffffff811115611a7e57611a7e611a0c565b611a91601f8201601f1916602001611a22565b818152846020838601011115611aa657600080fd5b816020850160208301376000918101602001919091529392505050565b600080600060608486031215611ad857600080fd5b611ae1846119c2565b92506020840135611af1816119f1565b9150604084013567ffffffffffffffff811115611b0d57600080fd5b611b1986828701611a53565b9150509250925092565b60008060408385031215611b3657600080fd5b823567ffffffffffffffff80821115611b4e57600080fd5b818501915085601f830112611b6257600080fd5b8135602082821115611b7657611b76611a0c565b8160051b9250611b87818401611a22565b8281529284018101928181019089851115611ba157600080fd5b948201945b84861015611bc657611bb7866119c2565b82529482019490820190611ba6565b9650611bd59050878201611a01565b9450505050509250929050565b634e487b7160e01b600052602160045260246000fd5b600581106119fe576119fe611be2565b6000815180845260005b81811015611c2e57602081850181015186830182015201611c12565b506000602082860101526020601f19601f83011685010191505092915050565b63ffffffff881681526001600160a01b0387166020820152611c6f86611bf8565b85604082015260e060608201526000611c8b60e0830187611c08565b94151560808301525060a081019290925260c090910152949350505050565b63ffffffff85811682528416602082015260808101611cc884611bf8565b60408201939093526060015292915050565b60a08101611ce787611bf8565b9581526020810194909452604084019290925215156060830152151560809091015290565b60008060408385031215611d1f57600080fd5b611d28836119c2565b91506020830135611d38816119f1565b809150509250929050565b60008060408385031215611d5657600080fd5b611d5f836119c2565b9150602083013567ffffffffffffffff811115611d7b57600080fd5b611d8785828601611a53565b9150509250929050565b60006101608d83528c60208401528b60408401528a60608401528960808401528060a0840152611dc38184018a611c08565b91505086151560c0830152611dd786611bf8565b8560e083015284610100830152836101208301528215156101408301529c9b505050505050505050505050565b60008060008060808587031215611e1a57600080fd5b843560ff81168114611e2b57600080fd5b9350611e39602086016119c2565b9250611e47604086016119c2565b9150606085013567ffffffffffffffff811115611e6357600080fd5b611e6f87828801611a53565b91505092959194509250565b6001600160a01b0387168152611e9086611bf8565b85602082015260c060408201526000611eac60c0830187611c08565b941515606083015250608081019290925260a0909101529392505050565b6020808252600d908201526c2737ba103932b3bab630ba37b960991b604082015260600190565b6020808252600e908201526d125b9d985b1a59081c995c1bdc9d60921b604082015260600190565b600181811c90821680611f2d57607f821691505b602082108103611f4d57634e487b7160e01b600052602260045260246000fd5b50919050565b601f821115610c42576000816000526020600020601f850160051c81016020861015611f7c5750805b601f850160051c820191505b81811015611f9b57828155600101611f88565b505050505050565b815167ffffffffffffffff811115611fbd57611fbd611a0c565b611fd181611fcb8454611f19565b84611f53565b602080601f8311600181146120065760008415611fee5750858301515b600019600386901b1c1916600185901b178555611f9b565b600085815260208120601f198616915b8281101561203557888601518255948401946001909101908401612016565b50858210156120535787850151600019600388901b60f8161c191681555b5050505050600190811b01905550565b6020810161207083611bf8565b91905290565b634e487b7160e01b600052603260045260246000fd5b600063ffffffff8083168181036120b357634e487b7160e01b600052601160045260246000fd5b6001019392505050565b82815260408101605483106120d4576120d4611be2565b8260208301529392505050565b6000602082840312156120f357600080fd5b505191905056fea264697066735822122016dde79d43daa65ca4c666905021478e1c9524c8c0ffd64af1c90d27e2073c2064736f6c63430008180033",
  "linkReferences": {},
  "deployedLinkReferences": {}
}